:020000040800F2
:10000000E8100020510500083D0200083F020008EA
:100010004B020008570200086302000800000000BD
:100020000000000000000000000000006F02000857
:100030007102000800000000670500087302000854
:100040006B0500086B0500086B05000877020008C7
:100050006B0500086B050008750200089B28000866
:100060006B0500086B0500086B0500086B050008B0
:100070006B0500086B0500086B0500086B050008A0
:100080006B0500086B0500086B0500086B05000890
:100090006B0500086B0500086B0500086B05000880
:1000A0006B0500086B0500086B0500086B05000870
:1000B0006B0500086B0500086B0500086B05000860
:1000C0006B0500086B0500086B0500086B05000850
:1000D0006B050008B3270008736800086B0500086B
:1000E0006B0500086B0500086B05000800F002F8BE
:1000F00000F094F80AA090E8000C82448344AAF12E
:100100000107DA4501D100F089F8AFF2090EBAE82B
:100110000F0013F0010F18BFFB1A43F0010318473B
:1001200040E9000060E90000103A24BF78C878C1B7
:10013000FAD8520724BF30C830C144BF04680C60ED
:10014000704700000023002400250026103A28BF35
:1001500078C1FBD8520728BF30C148BF0B60704739
:100160006E2908F07987702908F0D78266290CF08B
:10017000168665290CF0138667290CF01086612914
:100180000CF00F8603681B0A28BF41F08001692923
:1001900008F04882642908F04582752908F04282F7
:1001A0006F2909F07682782908F0A382E92909F0FD
:1001B0001182E42909F00E82F52909F00B82EF295A
:1001C00009F07382F82908F0A2820368DB0928BFCE
:1001D00041F08001632909F09281732909F0978128
:1001E000E32909F0ED84F32909F0F2840020704737
:1001F0001FB59DE8030008F083FE09F0A9FA04008A
:10020000002000210BF0B4FB401C606000200021A6
:100210000BF0C4FBE0601FBD10B510BD09F030FF4E
:100220001146FFF7E5FF04F052F809F04EFF03B462
:10023000FFF7F2FF03BC09F07FFF000070470EA13B
:100240001C4802F092FA00BFFEE71BA1194802F019
:100250008CFA00BFFEE727A1164802F086FA00BF1D
:10026000FEE733A1134802F080FA00BFFEE77047B3
:1002700070477047704770470D0A2A2A2A2A2A2A8F
:100280002A2A2A2A2A2A2A2A2A2A2A2A2A48617231
:10029000644661756C745F48616E646C65722A2A8D
:1002A0002A2A2A2A2A2A2A2A2A2A2A2A2A2A2A2AAE
:1002B0002A0D0A00003801400D0A2A2A2A2A2A2A71
:1002C0002A2A2A2A2A2A2A2A2A2A2A2A2A4D656DED
:1002D0004D616E6167655F48616E646C65722A2A64
:1002E0002A2A2A2A2A2A2A2A2A2A2A2A2A2A2A2A6E
:1002F0002A0D0A000D0A2A2A2A2A2A2A2A2A2A2A02
:100300002A2A2A2A2A2A2A2A2A4275734661756CC1
:10031000745F48616E646C65722A2A2A2A2A2A2A26
:100320002A2A2A2A2A2A2A2A2A2A2A2A0D0A0000BE
:100330000D0A2A2A2A2A2A2A2A2A2A2A2A2A2A2A5A
:100340002A2A2A2A2A55736167654661756C745F8B
:1003500048616E646C65722A2A2A2A2A2A2A2A2A65
:100360002A2A2A2A2A2A2A2A2A2A0D0A00000000D2
:100370000CB50020019000906C48006840F480307B
:100380006A49086000BF6948006800F400300090C6
:100390000198401C0190009818B90198B0F5A06F21
:1003A000F1D16248006800F4003010B101200090E3
:1003B00001E0002000900098012843D15C480068CB
:1003C00040F010005A4908600846006820F0030019
:1003D00008600846006840F0020008605348406822
:1003E000524948600846406848600846406840F402
:1003F000806048600846406820F47C1048600846E9
:10040000406840F4E81048600846006840F080709A
:10041000086000BF4548006800F000700028F9D06F
:100420004248406820F00300404948600846406860
:1004300040F00200486000BF3C48406800F00C00FB
:100440000828F9D10CBD10B5FFF792FF10BD10B50B
:100450003648006840F001003449086008464068AA
:10046000344908403149486008460068324908402C
:100470002E4908600846006820F48020086008467D
:10048000406820F4FE0048604FF41F008860FFF7CA
:10049000DAFF4FF000602949086010BD10B5002157
:1004A00000200022214B5B6803F00C0121B10429DC
:1004B00006D0082928D107E0214B224C236027E0F1
:1004C0001F4B204C236023E0184B5B6803F4701033
:1004D000164B5B6803F48032022303EB904022B991
:1004E000194B4343174C23600DE0104B5B6803F43A
:1004F000003323B1144B4343124C236003E0104BF1
:100500004343104C236003E00D4B0E4C236000BFAF
:1005100000BF064B5B68C3F303130C4CE15C094B53
:100520001B68CB40074C236010BD00000010024048
:10053000002002400000FFF8FFFFF6FE08ED00E09B
:1005400000127A000000002000093D000400002095
:100550000948804709480047FEE7FEE7FEE7FEE757
:10056000FEE7FEE7FEE7FEE7FEE7FEE70448054993
:10057000054A064B704700004F040008ED000008D4
:10058000E8060020E8100020E8080020E808002025
:1005900031490143314A1160704770B50021002391
:1005A0000F22C47804B32D4C246804F4E064C4F52D
:1005B000E064210AC1F10403CA40447804FA03F15B
:1005C0008478144021430901254C0678A15504780C
:1005D00004F01F050124AC4005786D11AD0005F154
:1005E000E025C5F8004109E0047804F01F05012466
:1005F000AC401C4D0678761145F8264070BD1A4A6D
:100600000A400243154B1B1F1A60704739B1134A49
:10061000121D12680243114B1B1D1A6006E00F4A9F
:10062000121D126882430D4B1B1D1A60704704286F
:1006300008D14FF0E021096941F004014FF0E022B8
:10064000116107E04FF0E021096921F004014FF04A
:10065000E0221161704700000000FA050CED00E097
:1006600000E400E080E100E080FFFF1F10B50446D9
:10067000FA48844208D10121401500F055FD0021BF
:10068000601500F051FD17E0F548844208D10121C2
:10069000001500F049FD0021201500F045FD0BE09C
:1006A000F048844208D10121C80300F03DFD00213B
:1006B0004FF4004000F038FD10BD30B50246002078
:1006C00000235068E84C20400D790C6844EA05246A
:1006D000204350609068E54C2040D1E902542C43FF
:1006E0004D7944EA450420439060D06A20F47000BC
:1006F0000C7C641EE4B2234340EA0350D06230BD58
:1007000000210160017141718160C16001210174AA
:10071000704721B1826842F00102826003E0826882
:1007200022F001028260704721B1826842F4807237
:10073000826003E0826822F480728260704710B5A4
:100740000023CBB21AB144681C43446002E0446801
:100750009C43446010BD816841F00801816070478E
:10076000014600208A6802F008020AB1012000E078
:1007700000207047816841F00401816070470146A4
:1007800000208A6802F004020AB1012000E0002083
:10079000704721B1826842F4A002826003E082685F
:1007A00022F4A00282607047014600208A6802F4A9
:1007B00080020AB1012000E00020704710B50A460F
:1007C00000210023416821F46041531E41EA433176
:1007D000416010BD21B1426842F40062426003E012
:1007E000426822F4006242607047F0B504460D464C
:1007F00000200021092D11DDE068A5F10A0606EBB5
:100800004607072606FA07F18843A5F10A0606EB14
:10081000460603FA06F10843E0600CE0206905EBA8
:100820004507072606FA07F1884305EB450603FA54
:1008300006F108432061072A0FDA606B561E06EBAB
:1008400086071F2606FA07F18843561E06EB860622
:1008500005FA06F10843606322E00D2A0FDA206BE7
:10086000D61F06EB86071F2606FA07F18843D61F18
:1008700006EB860605FA06F10843206310E0E06AFD
:10088000A2F10D0606EB86071F2606FA07F188433C
:10089000A2F10D0606EB860605FA06F10843E062B2
:1008A000F0BD21B1826842F48012826003E0826868
:1008B00022F48012826070470146C86C80B2704793
:1008C00066484C300068704721B1426842F480624B
:1008D000426003E0426822F480624260704721B1C6
:1008E000426842F48052426003E0426822F480523F
:1008F000426070470A460021816821F4E0411143BB
:100900008160704721B1826842F40042826003E056
:10091000826822F400428260704721B1826842F40A
:100920000212826003E0826822F402128260704741
:10093000014600208A6802F400120AB1012000E09A
:1009400000207047F0B5044615460020002200261E
:10095000092911DDE068A1F10A0707EB470C072719
:1009600007FA0CF29043A1F10A0707EB470703FAD5
:1009700007F21043E0600CE0206901EB410C07270F
:1009800007FA0CF2904301EB410703FA07F2104318
:100990002061A06BC0F30156EF1C06F1010CA7EB20
:1009A0000C0707EB870C1F2707FA0CF29043EF1C8C
:1009B00006F1010CA7EB0C0707EB870701FA07F21A
:1009C0001043A063F0BD10B50A4600210023816BDF
:1009D00021F44011531E41EA0351816310BD08B553
:1009E000002300930090009B0B440093009B1A602F
:1009F00008BD08B5024600200090009201F12800D1
:100A0000009B184400900098006880B208BD0A4618
:100A100000214168164B1940114341607047416203
:100A2000826270470A460021416821F01F0111438C
:100A30004160704740B109490831096841F400013B
:100A4000064A0832116007E004490831096821F4B8
:100A50000001024A08321160704700000024014082
:100A600000280140003C0140FFFEF0FFFDF7F1FFD0
:100A7000FFFD3FFF0246002013680B400BB1012031
:100A800000E000207047CA430260704770B502461C
:100A90000020002300240B125568CEB205EA06049C
:100AA00015681D4015B10CB1012000E0002070BD9B
:100AB00000220A12D34303607047000010B50446B9
:100AC000CC48844208D10121042000F02DFB0021F4
:100AD000042000F029FB46E0C748844208D10121E8
:100AE000082000F021FB0021082000F01DFB3AE067
:100AF000C248844208D10121102000F015FB0021DA
:100B0000102000F011FB2EE0BD48844208D10121E5
:100B1000202000F009FB0021202000F005FB22E04E
:100B2000B848844208D10121402000F0FDFA00219C
:100B3000402000F0F9FA16E0B348844208D10121C0
:100B4000802000F0F1FA0021802000F0EDFA0AE0A8
:100B5000AE48844207D10121801500F0E5FA00215A
:100B6000A01500F0E1FA10BD10B50121084600F013
:100B7000DBFA0021012000F0D7FA10BD2DE9F04189
:100B8000024600250026002000230024002791F8BB
:100B900003C00CF00F0591F803C00CF0100CBCF171
:100BA000000F03D091F802C04CEA050591F800C08F
:100BB000BCF1000F31D0146800202BE04FF0010C85
:100BC0000CFA00F3B1F800C00CEA03069E4220D1F3
:100BD00083004FF00F0C0CFA03F7BC4305FA03FC3B
:100BE0004CEA040491F803C0BCF1280F06D14FF081
:100BF000010C0CFA00FCC2F814C00AE091F803C022
:100C0000BCF1480F05D14FF0010C0CFA00FCC2F802
:100C100010C0401C0828D1D31460B1F800C0BCF14A
:100C2000FF0F34DD546800202EE000F1080C4FF077
:100C3000010808FA0CF3B1F800C00CEA03069E4262
:100C400021D183004FF00F0C0CFA03F7BC4305FAD7
:100C500003FC4CEA040491F803C0BCF1280F05D151
:100C600000F1080C08FA0CF8C2F8148091F803C0DF
:100C7000BCF1480F07D100F1080C4FF0010808FA49
:100C80000CF8C2F81080401C0828CED35460BDE890
:100C9000F0814FF6FF710180022181700421C17043
:100CA00070470246002093680B400BB1012000E022
:100CB000002070470146886880B2704702460020D5
:100CC000D3680B400BB1012000E0002070470146C3
:100CD000C86880B2704701617047416170470AB1CE
:100CE000016100E041617047C16070474FF480329C
:100CF0000A4382618161826182698269704702462A
:100D00000020434B18684FF68073184040EA0210E9
:100D100008433F4B186070473E49C8617047F0B5C3
:100D20000A46002300240021002500F00046B6F109
:100D3000004F02D1364EF16901E0354E7168C0F3C3
:100D4000034583B200F44016B6F5401F08D121F0E8
:100D500070612F4E766826F070662D4F7E6012E02F
:100D600000F48016B6F5801F06D1032606FA05F4B6
:100D7000A14341F0706106E0460D360103FA06F624
:100D8000B14341F0706122B1460D360103FA06F617
:100D9000314300F00046B6F1004F02D11C4EF16124
:100DA00001E01B4E7160F0BD30B500228B071C0FB7
:100DB0000F2303FA04F2164B08338C1053F8243037
:100DC0009343134C08348D1044F8253023468C107F
:100DD00053F824308C07240F00FA04F423430C4CFE
:100DE00008348D1044F8253030BD0A49DC310860E4
:100DF0007047000000080140000C01400010014055
:100E00000014014000180140001C01400020014076
:100E10000000014000002042DF48006840F001006F
:100E2000DD49086008464068DC490840DA49486006
:100E300008460068DA490840D74908600846006853
:100E400020F4802008600846406820F4FE004860D6
:100E50004FF41F0088607047CF49096821F4803142
:100E6000CD4A11601146096821F480211160B0F566
:100E7000803F03D0B0F5802F0ED106E0C649096847
:100E800041F48031C44A116007E0C349096841F464
:100E9000A021C14A116000E000BF00BF704710B53B
:100EA00001460022002300204A11012A02D1BA4C37
:100EB000236806E0022A02D1B74C236A01E0B64C4F
:100EC000636A01F01F02012494401C400CB1012010
:100ED00000E0002010BD38B500200090002400255F
:100EE00000BF3120FFF7DBFF05460098401C009053
:100EF0000098B0F5A06F01D0002DF2D03120FFF79F
:100F0000CEFF08B1012400E00024204638BD014690
:100F10000020A14A106820F0F80040EAC1001060EB
:100F20007047A04908607047024600209A4B5868F5
:100F300020F47C1042EA01031843974B5860704735
:100F400098490866704701460020934A506820F08F
:100F500003000843506070478F48406800F00C0061
:100F60007047014600208C4A506820F0F00008438A
:100F70005060704701460020874A506820F4E060C6
:100F800008435060704701460020834A506820F4AF
:100F9000605040EAC1005060704729B17E4A527AE1
:100FA00002437D4B5A7204E07B4A527A82437A4B69
:100FB0005A7270477B49D83108607047014600205B
:100FC000754A506820F44040084350607047002143
:100FD000714A20321170704A82F82010012802D024
:100FE00004280AD104E001216B4A2032117005E087
:100FF0000521694A2032117000E000BF00BF704730
:101000006949086070476449096A0143624A11628C
:101010007047654944390860704730B500210022A7
:10102000002400235C4D6D6805F00C0121B10429FA
:1010300005D0082923D105E05C4D056022E05B4D19
:1010400005601FE0544D6D6805F47012524D6D68D7
:1010500005F48034022505EB92421CB9544D5543EA
:1010600005600BE04C4D6D6805F400351DB1504D29
:101070005543056002E04D4D5543056002E04B4D80
:10108000056000BF00BF444D6D6805F0F00109091F
:10109000484D6B5C0568DD4045603F4D6D6805F46B
:1010A000E061090A434D6B5C4568DD4085603A4D5F
:1010B0006D6805F46051C90A3E4D6B5C4568DD40C2
:1010C000C560354D6D6805F44041890B3A4D6B5C48
:1010D000C568B5FBF3F5056130BD29B12E4A5269EB
:1010E00002432D4B5A6104E02B4A526982432A4B3A
:1010F0005A61704729B1284A92690243264B9A6186
:1011000004E0254A92698243234B9A61704729B1D2
:10111000214AD2690243204BDA6104E01E4AD269B7
:1011200082431D4BDA61704729B11B4AD2680243E2
:10113000194BDA6004E0184AD2688243164BDA6031
:10114000704729B1144A12690243134B1A6104E033
:10115000114A12698243104B1A6170471249403993
:10116000086070470F49C86470470B49C8717047E1
:101170000948406A40F0807007494862704701465C
:101180000020054A92680A400AB1012000E00020D0
:101190007047014988727047001002400000FFF854
:1011A000FFFFF6FE000042428004424200127A0035
:1011B00000093D00140000202400002010B5044662
:1011C000FE48844208D10121C014FFF7ADFF002181
:1011D000E014FFF7A9FFC4E0B4F1804F08D101216A
:1011E0000846FFF7AEFF00210120FFF7AAFFB8E095
:1011F000F348844208D101210220FFF7A2FF002119
:101200000220FFF79EFFACE0EE48844208D10121A6
:101210000420FFF796FF00210420FFF792FFA0E0D3
:10122000E948844208D101210820FFF78AFF002104
:101230000820FFF786FF94E0E448844208D10121AA
:101240001020FFF77EFF00211020FFF77AFF88E0D3
:10125000DF48844208D101212020FFF772FF0021DE
:101260002020FFF76EFF7CE0DA48844208D101219C
:101270004014FFF759FF00216014FFF755FF70E09D
:10128000D548844209D10121C804FFF74DFF002150
:101290004FF40020FFF748FF63E0D048844209D1B3
:1012A00001210805FFF740FF00214FF48010FFF7F0
:1012B0003BFF56E0CA48844209D101214805FFF7A7
:1012C00033FF00214FF40010FFF72EFF49E0C5481F
:1012D000844208D101214020FFF733FF0021402044
:1012E000FFF72FFF3DE0C048844208D10121802054
:1012F000FFF727FF00218020FFF723FF31E0BB48E5
:10130000844208D101218015FFF71BFF0021A015A1
:10131000FFF717FF25E0B648844209D101210804F0
:10132000FFF702FF00214FF48030FFF7FDFE18E0C9
:10133000B048844209D101214804FFF7F5FE00219D
:101340004FF40030FFF7F0FE0BE0AB48844208D1C9
:1013500001218804FFF7E8FE00214FF48020FFF709
:10136000E3FE10BD00220288944B98420ED0994BA8
:1013700098420BD0B0F1804F08D0914B984205D0E5
:10138000904B984202D0904B984204D14FF68F7305
:101390001A404B881A438D4B984207D08C4B984289
:1013A00004D04FF6FF431A40CB881A4302808B8843
:1013B00083850B880385814B98420BD0854B9842DF
:1013C00008D08B4B984205D08A4B984202D08A4B6A
:1013D000984201D10B7A038601238382704770B54E
:1013E000002400220023058C4FF6FE76354005844C
:1013F000028C8388048B4FF68F752C40B51E2C40D1
:101400000D882C43751E2A400D892A434D882A4396
:101410006A4DA8420BD06F4DA84208D0744DA84227
:1014200005D0744DA84202D0734DA84213D14FF697
:10143000F7752A404D892A434FF6FB752A408D885F
:101440002A434FF6FF652B404FF6FF552B408D8901
:101450002B43CD892B4383800483CD8885860284EA
:1014600070BD70B5002400220023058C4FF6EF7686
:1014700035400584028C8388048B48F6FF752C4028
:101480004FF6FF452C400D884FF6FF7606EA0525FE
:101490002C434FF6DF752A400D8906EA05152A43CD
:1014A0004D8806EA05152A43444DA84202D0494D0D
:1014B000A8421DD14FF67F752A404D894FF6FF7621
:1014C00006EA05152A434FF6BF752A408D8806EABD
:1014D00005152A434FF6FF352B404FF2FF752B4081
:1014E0008D8906EA85052B43CD8906EA85052B43C0
:1014F00083800483CD880587028470BD70B5002485
:1015000000220023058C4FF6FF6635400584028CCF
:101510008388848B4FF68F752C404FF6FC752C40DA
:101520000D882C434FF6FF552A400D894FF6FF7664
:1015300006EA05252A434D8806EA05252A431F4D5C
:10154000A84202D0234DA8421DD14FF2FF752A4078
:101550004D894FF6FF7606EA05252A434FF6FF35FB
:101560002A408D8806EA05252A434EF6FF752B4052
:101570004DF6FF752B408D8906EA05152B43CD8965
:1015800006EA05152B4383808483CD8885870284F2
:1015900070BD70B5002200230024058C4EF6FF7646
:1015A00035400584038C8488828B48F6FF752A4079
:1015B0004FF6FF452A400D8820E00000002C014036
:1015C0000004004000080040000C004000100040F3
:1015D0000014004000340140004C01400050014024
:1015E0000054014000180040001C00400020004052
:1015F0000040014000440140004801404FF6FF76A2
:1016000006EA05252A434DF6FF752B400D8906EAAB
:1016100005352B434D8806EA05352B43FA4DA84284
:1016200002D0FA4DA84208D14BF6FF752C408D89A7
:101630004FF6FF7606EA85152C4384808283CD8899
:10164000A0F84050038470BD828B4FF2FF331A40E4
:101650008283828B4FF6FF7303EA01231A4382834E
:101660007047F0B50C461546002200210026078C75
:101670004EF6FF7C07EA0C070784828B018C4FF63D
:10168000FF7707EA043640F6FF473A404FF6FF7708
:1016900007EA05273A434FF6FF7707EA03373A434D
:1016A000D94FB8420ED0D94FB8420BD0B0F1804FCD
:1016B00008D0D74FB84205D0D64FB84202D0D64F47
:1016C000B84206D14DF6FF77394046F4805739438A
:1016D00005E047F6FF57394044F480573943828389
:1016E0000184F0BD828B4FF6F3731A408283828BA4
:1016F0000A4382837047F0B50C461546002200214C
:101700000026078C4FF6FF6C07EA0C070784828BD4
:10171000018C4FF6FF7707EA04264FF60C773A4024
:101720004FF6FF7707EA03172F433A43B64FB84205
:101730000ED0B64FB8420BD0B0F1804F08D0B44FA6
:10174000B84205D0B34FB84202D0B34FB84206D129
:101750004FF6FF57394046F48077394305E04FF2A2
:10176000FF57394044F48077394382830184F0BDC8
:10177000028B4FF2FF331A400283028B4FF6FF7346
:1017800003EA01231A4302837047F0B50C4615465D
:10179000002200210026078C4FF6EF7C07EA0C0799
:1017A0000784028B018C4FF6FF7707EA041640F698
:1017B000FF473A404FF6FF7707EA03373A434FF6C1
:1017C000FF7707EA05273A438F4FB8420ED08F4F75
:1017D000B8420BD0B0F1804F08D08D4FB84205D041
:1017E0008C4FB84202D08C4FB84206D14FF6DF770B
:1017F000394046F01007394305E04FF65F7739402E
:1018000044F01007394302830184F0BD028B4FF688
:10181000F3731A400283028B0A4302837047F0B5C8
:101820000C46154600220021068C4FF6FE773E40FE
:101830000684028B018C4FF60C7632407E1C06EA41
:1018400003162E433243704EB0420ED06F4EB0425C
:101850000BD0B0F1804F08D06D4EB04205D06D4E28
:10186000B04202D06C4EB04206D14FF6FD76314008
:1018700044F00106314305E04FF6F576314044F07F
:101880000106314302830184F0BD70B505460C4664
:101890005D4885420ED05D4885420BD0B5F1804F42
:1018A00008D05B48854205D05A48854202D05A4844
:1018B000854200D100E000BF208850B92389A2886A
:1018C00061882846FFF7ABFFE1882846FFF79EFFB7
:1018D00025E0208804280AD12389A2886188284627
:1018E000FFF753FFE1882846FFF742FF17E0208803
:1018F00008280AD12389A28861882846FFF7FBFEC1
:10190000E1882846FFF7EEFE09E02389A288618876
:101910002846FFF7A6FEE1882846FFF795FE70BD32
:101920002DE9F04105460C4600260127608808B9DC
:10193000022600E00026A088012801D1022700E04D
:1019400001272088A0B92389A28861882846FFF74B
:1019500066FFE1882846FFF759FF23893A4631465A
:101960002846FFF712FFE1882846FFF701FF13E042
:101970002389A28861882846FFF707FFE188284667
:10198000FFF7F6FE23893A4631462846FFF747FF20
:10199000E1882846FFF73AFFBDE8F0810A884B88C6
:1019A0001A438B881A43CB881A430B891A434B89F5
:1019B0001A438B891A43A0F8442070474FF6FF71F1
:1019C000818000210180C180418001727047002127
:1019D000018041808180C180018141818181C181FB
:1019E0007047002101804180012181800021C18058
:1019F000018170470021018041808180C180018187
:101A00004181818170470000002C01400034014079
:101A10000004004000080040000C004021B1028892
:101A200042F00102028004E002884FF6FE731A4081
:101A30000280704731B1B0F8442042F40042A0F86F
:101A4000442005E0B0F84420C2F30E02A0F8442080
:101A500070471AB183890B43838102E083898B43EA
:101A6000838170478182704741EA0203A0F84830C1
:101A700070471AB183890B43838102E083898B43CA
:101A80008381704701894FF6F872114001817047D8
:101A90000A46002101894FF68F73194011430181D5
:101AA000704730B504460D4629462046FFF7F0FF43
:101AB000208940F00700208130BD2DE9F041044627
:101AC0000D4616461F46602D06D13B460122314683
:101AD0002046FFF75AFE05E03B46012231462046EC
:101AE000FFF79DFE29462046FFF7D2FF208940F0F0
:101AF00007002081BDE8F08130B50C460021018946
:101B0000C9B24FF6FF7505EA03251543254329435E
:101B1000018130BD2DE9F04105460E461746984635
:101B2000002443463A4631462846FFF7E5FF2C8914
:101B30004FF6F870044044F007044FF68F700440ED
:101B400044F070042C81BDE8F081F0B504460D46E8
:101B500016461F463B46324629462046FFF7CCFF35
:101B6000208940F480402081F0BD01858282704749
:101B70000A46002101884FF68F73194011430180F6
:101B80007047F0B50C4615461E4600210022002382
:101B90000189028B038C4FF6F877394021434FF6C9
:101BA000FC473A4040F201173A434FF6DD773B409D
:101BB0004FF6FF7707EA06172F433B430181028365
:101BC0000384F0BD0A460021018B4FF68F73194044
:101BD0001143018370470A460021018B48F6FF73C9
:101BE00019404FF6FF7303EA02231943018370473C
:101BF0000A460021818B4FF68F7319401143818370
:101C000070470A460021818B48F6FF7319404FF652
:101C1000FF7303EA022319438183704721B10288CD
:101C200042F08002028004E002884FF67F731A407F
:101C30000280704721B1828842F00402828004E071
:101C400082884FF6FB731A408280704721B18288E8
:101C500042F00802828004E082884FF6F7731A404F
:101C60008280704721B1828842F00102828004E0C4
:101C700082884FF6FE731A40828070470A46002120
:101C8000018B4FF6F77319401143018370470A46E1
:101C90000021018B4FF2FF7319404FF6FF7303EAE7
:101CA00002231943018370470A460021818B4FF6B6
:101CB000F77319401143818370470A460021818BD5
:101CC0004FF2FF7319404FF6FF7303EA02231943E3
:101CD000818370470A460021018B4FF6FB73194040
:101CE0001143018370470A460021018B4FF6FF33F1
:101CF00019404FF6FF7303EA02231943018370472B
:101D00000A460021818B4FF6FB73194011438183F2
:101D100070470A460021818B4FF6FF3319404FF67A
:101D2000FF7303EA02231943818370470A460021A7
:101D3000018B4FF67F7319401143018370470A46A8
:101D40000021018BC1F30E014FF6FF7303EA02235A
:101D50001943018370470A460021818B4FF67F7338
:101D600019401143818370470A460021818BC1F3DA
:101D70000E014FF6FF7303EA022319438183704774
:101D80000A460021018C4FF6FD731940114301846E
:101D900070470A460021018C4FF6F7731940114332
:101DA000018470470A460021018C4FF6DF73194009
:101DB0004FF6FF7303EA02131943018470470A4682
:101DC0000021018C4FF67F7319404FF6FF7303EA31
:101DD00002131943018470470A460021018C4FF613
:101DE000FF5319404FF6FF7303EA0223194301849E
:101DF00070470A460021018C4FF2FF7319404FF6DD
:101E0000FF7303EA02231943018470470A46002145
:101E1000018C4DF6FF7319404FF6FF7303EA02334E
:101E200019430184704730B5002301248C40A3B2CC
:101E3000048C9C430484048C02FA01F5ADB22C435B
:101E4000048430BD30B5002304248C40A3B2048C3C
:101E50009C430484048C02FA01F5ADB22C43048443
:101E600030BD70B503460020002418461830012507
:101E70008D40ACB21D8CA5431D8409B1082909D140
:101E800000EB6100056825F07005056005681543E5
:101E900005600EE00D1FC5F34E052844056825F4C6
:101EA000E045056005684FF6FF7606EA02263543F1
:101EB000056070BD21B1028842F00202028004E098
:101EC00002884FF6FD731A400280704721B10288E4
:101ED00042F00402028004E002884FF6FB731A40CD
:101EE0000280704721B1828842F08002828004E043
:101EF00082884FF67F731A408280704702884FF6BF
:101F0000F7731A40028002880A4302807047828871
:101F10004FF68F731A40828082880A43828070470E
:101F200002894FF6F8731A40028102890A4302813E
:101F3000704702894FF67F731A40028102890A4373
:101F40000281704781847047818570478186704720
:101F50000187704781877047A0F84010704702885A
:101F60004FF6FF431A40028002880A4302807047FE
:101F70000146888E70470146088F70470146888F5A
:101F800070470146B1F8400070470146888C7047A1
:101F90000146088D704702460020138A0B400BB1A2
:101FA000012000E000207047CA430282704730B52C
:101FB0000246002000230024158A05EA01039589C2
:101FC00005EA010413B10CB1012000E0002030BD8E
:101FD000CA4302827047000010B50446FB488442A1
:101FE00009D101218803FFF79FF800214FF48040B9
:101FF000FFF79AF832E0F648844209D101214804FB
:10200000FFF79FF800214FF40030FFF79AF825E022
:10201000F048844209D101218804FFF792F8002199
:102020004FF48020FFF78DF818E0EB48844209D187
:102030000121C804FFF785F800214FF40020FFF7C5
:1020400080F80BE0E548844208D101210805FFF73C
:1020500078F800214FF48010FFF773F810BD2DE9D8
:10206000F04786B005460E460024A24600BFA146B2
:102070000027B08900B100BF2F462C8A4CF6FF70B4
:102080000440F08804432C82AC894EF6F3100440DF
:10209000B08831890843718908430443AC81AC8A14
:1020A0004FF6FF400440B0890443AC8201A8FEF71C
:1020B000B4FFC648874202D1DDF810A001E0DDF888
:1020C0000CA0A88900F4004040B10AEBCA0000EB64
:1020D0000A1031684900B0FBF1F807E00AEBCA00CA
:1020E00000EB0A1031688900B0FBF1F86420B8FBFE
:1020F000F0F004012009642101FB1089A88900F493
:10210000004040B1322000EBC900B0FBF1F000F01C
:102110000700044308E0322000EB09106421B0FB03
:10212000F1F000F00F0004432C8106B0BDE8F08709
:102130004FF41651016000218180C18001810C2182
:10214000418100218181704710B502460020108A2C
:102150004FF2FF0318400B884C8823438C8823439D
:10216000CC8823431843108210BD00210180418098
:102170008180C180704721B1828942F400528281FE
:1021800004E082894DF6FF731A4082817047F0B5F2
:102190000346002400260025002040F66A17B942B5
:1021A00000D100BF1846C1F3421401F01F060127F9
:1021B00007FA06F5012C01D10C3004E0022C01D104
:1021C000103000E014301AB107682F43076002E0B6
:1021D0000768AF430760F0BD1AB1838A0B4383825F
:1021E00002E0838A8B4383827047028A4FF6F07342
:1021F0001A400282028A0A430282704782894FF2A1
:10220000FF731A40828182890A438281704721B11B
:10221000828942F00202828104E082894FF6FD73D6
:102220001A4082817047028A4FF6DF731A40028299
:10223000028A0A430282704721B1028A42F4804234
:10224000028204E0028A4BF6FF731A400282704752
:10225000C1F308028280704701468888C0F30800F5
:102260007047818941F0010181817047028BD2B2B0
:102270000283028B42EA012202837047028B02F43E
:102280007F420283028B0A430283704721B1828A14
:1022900042F02002828204E0828A4FF6DF731A4005
:1022A0008282704721B1828A42F01002828204E069
:1022B000828A4FF6EF731A408282704721B1828A78
:1022C00042F00802828204E0828A4FF6F7731A40D5
:1022D0008282704721B1828942F40042828103E008
:1022E0008289C2F30E028281704721B1828A42F450
:1022F0000062828204E0828A4FF2FF731A40828277
:102300007047828A4FF6FB731A408282828A0A43A0
:102310008282704721B1828A42F00202828204E006
:10232000828A4FF6FD731A4082827047024600206F
:10233000B1F5007F00D100BF13880B400BB1012025
:1023400000E00020704701F40072B2F5007F00D178
:1023500000BFCA430280704770B5024600240023C4
:102360000025002040F66A16B14200D100BFC1F33B
:10237000421501F01F03012606FA03F3012D02D1D5
:102380009689334006E0022D02D1168A334001E0DF
:10239000968A33400C12012606FA04F4168834405B
:1023A00013B10CB1012000E0002070BD10B5002277
:1023B000002340F66A14A14200D100BF0A12012492
:1023C0009440A3B2DC43048010BD000000380140FB
:1023D0000044004000480040004C004000500040D5
:1023E000002044490860091D0860091D0860091D96
:1023F000086041483F4914310860704700213D4959
:102400008279002A3AD00A46126803689A430B463A
:102410001A600A1D126803689A430B1D1A6002793C
:1024200011440A6803681A430A60324A0832126883
:1024300003689A432F4B08331A601A1D1268036809
:102440009A432C4B0C331A604279102A0ED11A1F72
:10245000126803681A43274B08331A601A1D126862
:1024600003681A43234B0C331A600DE0214942796B
:1024700011440A6803681A430A6005E002791144AE
:102480000A6803689A430A6070470021016001717D
:102490000C21417100218171704716491031096882
:1024A0000143144A10321160704701460020114A5E
:1024B000143212680A400AB1012000E0002070477F
:1024C0000C49143108607047014600200022094B76
:1024D0001B6803EA0102074B14331B680B4013B15E
:1024E0000AB1012000E00020704702491431086061
:1024F0007047000000040140FFFF0F004FF0E02094
:10250000006920F004004FF0E021086109203649FD
:1025100008700846007800EB4001C1EBC0104FF690
:10252000FF7101EAC000314908807047002120F0A6
:102530007F402D4A127842434FF0E0235A61002237
:102540009A6101221A6100BF4FF0E022116901F087
:1025500001021AB101F48032002AF5D000224FF0B6
:10256000E0231A619A617047002100B9704720F09A
:102570007F401E4A128842434FF0E0235A610022F6
:102580009A6101221A6100BF4FF0E022116901F047
:1025900001021AB101F48032002AF5D000224FF076
:1025A000E0231A619A6100BFE0E770B50446002697
:1025B00000254FF4FA7094FBF0F0C6B24FF4FA70B5
:1025C00094FBF0F100FB114085B205E04FF4FA7086
:1025D000FFF7CAFF701EC6B2002EF7D115B128460C
:1025E000FFF7C2FF70BD0000280000202A00002075
:1025F00010B586B0044601210420FEF77BFD0121C1
:102600008803FEF777FD18208DF817004FF400704F
:10261000ADF8140003208DF8160005A96B48FEF7ED
:10262000ADFA04208DF817000002ADF81400032065
:102630008DF8160005A96548FEF7A0FA0194002060
:10264000ADF810000C20ADF80E000020ADF80C0025
:10265000ADF80A00ADF8080001A95D48FFF7FFFCDE
:1026600001215B48FFF787FD012240F225515848C0
:10267000FFF78DFD25208DF8000001208DF8030067
:1026800000208DF8010002208DF802006846FDF759
:1026900084FF06B010BD10B586B0044601210420A9
:1026A000FEF728FD01214804FEF731FD18208DF8C2
:1026B00017000420ADF8140003208DF8160005A9BA
:1026C0004248FEF75BFA04208DF817000820ADF8A9
:1026D000140003208DF8160005A93C48FEF74EFAB9
:1026E00001940020ADF810000C20ADF80E00002081
:1026F000ADF80C00ADF80A00ADF8080001A93548A6
:10270000FFF7ADFC01213348FFF735FD012240F210
:1027100025513048FFF73BFD26208DF800000120B1
:102720008DF8030000208DF801008DF80200684646
:10273000FDF733FF06B010BD2DE9F04107460C460A
:10274000154600260DE014F8011B3846FFF780FD02
:1027500000BF40213846FFF7E9FD0028F9D0701C82
:1027600086B2AE42EFDBBDE8F0810FB430B5CBB03E
:10277000054601AC50A800904FF4947101A8009B4D
:102780004F9A05F0B3FE002000900BE014F8011BF7
:102790002846FFF75DFD00BF40212846FFF7C6FD34
:1027A0000028F9D020780028F0D14BB030BC5DF87B
:1027B00014FB10B540F225510548FFF7CDFD18B1C7
:1027C00020210348FFF7BFFD10BD000000080140B5
:1027D000003801400044004010B5044684F0010276
:1027E0004FF400510D48FEF77AFA0D48047010BD01
:1027F00008B501211020FEF77DFC10208DF80300A4
:102800004002ADF8000003208DF80200694603483D
:10281000FEF7B4F90020FFF7DFFF08BD001001400C
:102820002C0000201FB501210420FEF763FC0121CC
:102830000846FEF75FFC48208DF80F000220ADF837
:102840000C0003208DF80E0003A92048FEF796F92E
:1028500001210020FEF7A8FA0220019000208DF847
:1028600008000C208DF8090001208DF80A0001A84D
:10287000FFF7C4FD4FF4A060FDF78AFE07208DF836
:10288000000002208DF801008DF8020001208DF873
:1028900003006846FDF781FE1FBD10B50A20FFF753
:1028A00063FE02210948FEF7FCF950B90848007898
:1028B000012803D10020FFF78FFF02E00120FFF77E
:1028C0008BFF0220FFF711FE10BD00000008014041
:1028D0002C00002010B56648006820F00F00644905
:1028E00008600846006840F00300086000220121EB
:1028F0005F48FEF7F4F91420FFF736FE0122114677
:102900005B48FEF7ECF91E20FFF710FE10BD10B576
:1029100000245748006820F00F0055490860084619
:10292000006840F00800086004E0601CC4B20120A8
:10293000FFF7FCFD01214E48FEF7B3F908B1642C06
:10294000F3DB642C01DB012010BD002404E0601CDB
:10295000C4B20120FFF7EAFD01214548FEF7A1F9C5
:1029600008B9642CF3DB642C01DB0120ECE70020C8
:10297000EAE710B5002404E0601CC4B20120FFF7B0
:10298000D5FD01213A48FEF78CF908B1642CF3DB40
:10299000002404E0601CC4B20120FFF7C7FD012140
:1029A0003348FEF77EF908B9642CF3DB2820FFF7E3
:1029B000BDFD01212E48FEF774F908B1012010BDBC
:1029C0000020FCE770B50024002506E06006040E38
:1029D000FFF7CFFF0443681CC5B2082DF6DB204685
:1029E00070BD7CB505460E46FFF774FFFFF78FFFFD
:1029F000F8B9002405E0FFF7E5FF0DF80400601CBE
:102A0000C4B2052CF7DB9DF800009DF801100844C6
:102A10009DF8021008449DF8031008449DF8041026
:102A2000884208D19DF8000030709DF8020028709F
:102A300001E001207CBD0020FCE708B50121042055
:102A4000FEF758FB0120ADF8000010208DF80300C0
:102A500003208DF8020069460548FEF78FF8012132
:102A60000348FEF738F9FFF735FFFFF750FF08BDC1
:102A70000008014010B5044622460221FE48FEF738
:102A80002EF910BD10B5044622460121FA48FEF782
:102A900026F910BD38B5002406E0002500E06D1CC5
:102AA000B5F57A7FFBD3641CB4F57A7FF5D30121A9
:102AB0000820FEF71FFB14208DF8030003208DF87B
:102AC00002000220ADF800006946EB48FEF756F818
:102AD0000120ADF800006946E748FEF74FF80120F5
:102AE000FFF7C8FF0120FFF7CDFF38BD10B501206B
:102AF000FFF7C8FF0120FFF7BDFF0020FFF7C2FF6F
:102B00000020FFF7B7FF10BD10B50020FFF7BAFF98
:102B10000120FFF7AFFF0120FFF7B4FF10BD70B534
:102B20000546002411E080212141294009B10121FD
:102B300000E000210846FFF7A5FF0120FFF79AFFFC
:102B40000020FFF797FF601CC4B2082CEBDB0120CC
:102B5000FFF790FF0020FFF78DFF70BD10B5044612
:102B6000FFF7C4FF7820FFF7DAFF0020FFF7D7FF59
:102B70002046FFF7D4FFFFF7C7FF10BD70B505462D
:102B80000E46FFF7B3FF7820FFF7C9FF4020FFF79D
:102B9000C6FF002404E0285DFFF7C1FF601CC4B23B
:102BA000B442F8DBFFF7B0FF70BD70B505460C46C8
:102BB00045F0B000FFF7D2FF102141EA1410FFF7F3
:102BC000CDFF04F00F00FFF7C9FF70BD10B5002462
:102BD0000BE000212046FFF7E8FFA84901EBC410F5
:102BE0008021FFF7CBFF601CC4B2082CF1DB10BDC5
:102BF00000200CE0002106E00022A04B03EBC013F4
:102C00005A544A1CD1B28029F6DB421CD0B20828A3
:102C1000F0DB704710B5FFF73DFFAE20FFF79EFFDA
:102C2000D520FFF79BFF8020FFF798FFA820FFF734
:102C300095FF3F20FFF792FFD320FFF78FFF002083
:102C4000FFF78CFF4020FFF789FFA120FFF786FFE9
:102C5000C820FFF783FFDA20FFF780FF1220FFF77D
:102C60007DFF8120FFF77AFFCF20FFF777FFD92084
:102C7000FFF774FFF120FFF771FFDB20FFF76EFF16
:102C80003020FFF76BFFA420FFF768FFA620FFF7B7
:102C900065FF8D20FFF762FF1420FFF75FFFAF2075
:102CA000FFF75CFFFFF7A4FFFFF790FF10BD10B523
:102CB0000246012000E050430B1EA1F10101FAD1B0
:102CC00010BD2DE9F04305460C461F46079E4FF008
:102CD000000C00216B1E34E032F91100B04201DD1E
:102CE000012000E0002032F91380B04502DD4FF0F2
:102CF000010801E04FF0000840451FD034F91300EF
:102D000034F91180A0EB080032F91180A6EB080815
:102D100000FB08F032F9138032F91190A8EB090892
:102D200090FBF8F034F911804044B84206DDBCF164
:102D3000000F01D1012000E0002084460B46481C12
:102D400001B2A942C8DB0CF0FF00BDE8F0832DE919
:102D5000FF4F87B08B4614469946079809F013F940
:102D600005460E46584609F00EF907462A463346F0
:102D700007F074FF424A434BCDE9000108F012FF0F
:102D80000022414BCDE9020109F064F9CDE90401CB
:102D900009F09CF80FFA80FA4C4507DAA2450BDBE4
:102DA000CA4509DC01200BB0BDE8F08FA24501DA6D
:102DB000CA4501DC0120F6E70020F4E72DE9F047E1
:102DC00006460D46174698462846E91705EB517109
:102DD000C9100FFA81F905EB0801481EC11700EB75
:102DE0005171C910491C0FFA81FA002D07DAA9F1B7
:102DF00001000FFA80F9AAF101000FFA80FA4C469F
:102E000014E0002E10DB7F2E0EDC002C0CDB072CD8
:102E10000ADCF1B2E0B2FFF7C8FE184901EBC411B9
:102E200088193946FFF7AAFE601C04B25445E8DB56
:102E3000BDE8F0872DE9F04304460D4616461F46CF
:102E4000284643E022463CE0002A38DB7F2A36DC75
:102E5000002834DB3F2832DC4FEAE07C00EB5C7C6E
:102E60004FEAEC0CDFF8148008EBCC1C1CF802C015
:102E700003464FEAE07809E0000C014048000020DA
:102E80001F85EB51B81E09400080664000EB587862
:102E90004FEAE808A0EBC8094FF0010808FA09F862
:102EA0002CEA080C01464FEAE07800EB58784FEA2C
:102EB000E808DFF8209409EBC81808F802C0511C94
:102EC0000AB2A1199142BFDC411C08B2E919814242
:102ED000B8DCBDE8F083002011E000210BE0FD4AE2
:102EE00002EBC012525C82F0FF02FA4B03EBC013FC
:102EF0005A544A1CD1B28029F1DB421CD0B20828B6
:102F0000EBDB70472DE9F04304460D4616461F469D
:102F1000284638E0224631E0002A2DDB7F2A2BDCD0
:102F2000002829DB3F2827DC4FEAE07C00EB5C7CB3
:102F30004FEAEC0CDFF89C8308EBCC1C1CF802C0B9
:102F400003464FEAE07800EB58784FEAE808A0EB38
:102F5000C8094FF0010808FA09F88CEA080C014684
:102F60004FEAE07800EB58784FEAE808DFF864931E
:102F700009EBC81808F802C0511C0AB2A119914205
:102F8000CADC411C08B2E9198142C3DCBDE8F08308
:102F90002DE9FF4F80460E469146DDF834B00025FE
:102FA00000244A4631464046039BFFF743FF00BFDB
:102FB0005EE0002558E008EB0500002852DB08EB36
:102FC00005007F284EDC3046F11706EB5171C91021
:102FD0000FB2F11706EB5171C910A6EBC10A002E12
:102FE00005DA781E07B20AF108000FFA80FA3819DC
:102FF000002817DB3819072814DC3819B54901EB0C
:10300000C01008EB0501405C04FB09511BF80110DE
:1030100001FA0AF108433919AE4A02EBC11108EB73
:10302000050288543819401C00281BDB3819401C45
:10303000072817DC3819401CA64901EBC01008EB23
:103040000501405C04FB09511BF80110CAF108029C
:10305000114108433919491C9E4A02EBC11108EB82
:1030600005028854681CC5B24D45A4DB601CC4B27F
:103070000399481EC11700EB5171012202EBE101D7
:10308000A14296DCBDE8FF8FF8B506460F46144610
:103090001D46082D0CD1A4F120008F4901EB001032
:1030A00010230822394600903046FFF771FF0FE0E9
:1030B000062D0DD1A4F1200000EB4000874901EB63
:1030C000400008230622394600903046FFF760FF93
:1030D000F8BD2DE9FE4F07468A461446984600255E
:1030E000AB46002672E0605D00F0800058B94FF0FA
:1030F000010B2846691C8DB2205C8DF8040000206D
:103100008DF8050013E04FF0020B2846691C8DB2C4
:10311000205C8DF80400605D00B95AE02846691C07
:103120008DB2205C8DF8050000208DF80600BBF103
:10313000010F0BD19DF80420B91908B2434651463E
:10314000FFF7A2FF06EB080086B23FE04FF0000950
:103150000EE0C9EBC90101EB8101614A881801A9A0
:1031600005F066FE00B90EE009F101001FFA80F9D2
:10317000C9EBC90101EB8101594A881859A105F031
:1031800057FE0028E5D100BFB8F1080F12D1C9EBF6
:10319000C90000EB800052490844C01CB9190090D6
:1031A00008B210231A465146FFF7F2FE06F110004E
:1031B00086B20BE0B8F1060F08D1B91908B20623A0
:1031C0003F225146FFF760FFB01D86B2605D0028C8
:1031D00089D100BFBDE8FE8F2DE9F047064689463C
:1031E00017461D46DDF82080002417E0281B411EED
:1031F0000A20FFF75CFDB7FBF0F00A21B0FBF1F20B
:1032000001FB120000F1300A04FB086108B24346DA
:1032100052464946FFF738FF601CC4B2AC42E5DBBA
:10322000BDE8F0872DE9F04F80468A4615461E46D8
:10323000DDF82490002D07DB4B462B2251464046FB
:10324000FFF722FF2F4606E04B462D22514640460F
:10325000FFF71AFF6F42002418E0301B411E0A20BE
:10326000FFF725FDB7FBF0F00A21B0FBF1F201FBFF
:10327000120000F1300B611C01FB098108B24B46C2
:103280005A465146FFF700FF601CC4B2B442E4DB6B
:10329000BDE8F08F2DE9F04706468A4691461F4665
:1032A000DDF8208000242BE0381B411E1020FFF7A2
:1032B000FEFCB9FBF0F000F00F050A2D14DA05F161
:1032C0003001CAB204FB086108B243465146FFF719
:1032D000DBFE13E04800002096CE000886D40008EC
:1032E0001CE400080000000005F13701CAB204FB2D
:1032F000086108B243465146FFF7C6FE601CC4B2DF
:10330000BC42D1DBBDE8F0872DE9F047064689468F
:1033100017461D46DDF82080002414E0281B411EBE
:103320000220FFF7C4FCB7FBF0F000F0010000F151
:10333000300A04FB086108B2434652464946FFF78B
:10334000A3FE601CC4B2AC42E8DBBDE8F0872DE907
:10335000FF5F86B0074614461D46DDF85080169E76
:10336000002213462046294608F072FF06D833464D
:103370002B2238460799FFF787FE07E033462D22B8
:1033800038460799FFF780FE85F00045204629461C
:1033900008F0CCFD8246504608F00CFE22462B4633
:1033A000CDE9040108F0E4FF04460D460A20159912
:1033B000FFF77DFC8146484608F0FCFD22462B467F
:1033C000CDE9000108F046FECDE9020108F060FAFF
:1033D000CDE9040108F0AAFD8346BBFBF9F0824465
:1033E000B91908B24346524600960799FFF7F4FE12
:1033F00008F1010101FB067108B233462E2207993C
:10340000FFF742FE08F1020101FB067108B20096C7
:103410005A46159B0799FFF7DFFE0AB0BDE8F09FFB
:103420000FB470B5C2B005460E4614464AA80190C6
:1034300002A8019A499905F047F800200190234617
:1034400002AA31462846FFF744FE42B070BC5DF840
:1034500014FB70B50346002B20DB7F2B1EDC0029FC
:103460001CDB3F291ADCCC1701EB5474E410F74D38
:1034700005EBC414E45C0A46CD1701EB5575ED105D
:10348000A1EBC5060125B5402C430846CD1701EB3D
:103490005575ED10ED4E06EBC515EC5470BD70B5CD
:1034A0000246002A19DB7F2A17DC002915DB3F2999
:1034B00013DCCC1701EB5474E410E44D05EBC41499
:1034C000A45CCD1701EB5575ED10A1EBC5060125E8
:1034D000B5402C400CB1012070BD0020FCE72DE967
:1034E000FF4F86B0069E079CDDF82080DDF8249013
:1034F0000020019000904C450FD1464502DDB246B8
:103500004646D046354605E021462846FFF7A1FF4E
:10351000681C05B24545F7DD99E046450FD14C459D
:1035200002DDA2464C46D146274605E039463046E4
:10353000FFF78FFF781C07B24F45F7DD87E0464560
:1035400005DDB2464646D046A2464C46D1464C45DD
:1035500007DD604204B2C9F100000FFA80F90120D2
:103560000190A9EB0400A8EB0601884207DDB246F2
:1035700026465446C246C846D14601200090A8EBD4
:10358000060000B20590A9EB04000FFA80FB4FEA99
:103590004B0000B203900598ABEB0000400000B276
:1035A00002900598C0EB4B0000B2049035462746C8
:1035B000019838B1009828B1684201B23846FFF747
:1035C00048FF12E0019828B1784201B22846FFF77F
:1035D00040FF0AE0009820B129463846FFF739FF3E
:1035E00003E039462846FFF734FF2EE0681C05B299
:1035F0000498002805DADDE90310084400B20490BD
:1036000006E0781C07B202990498084400B20490BE
:10361000019838B1009828B1684201B23846FFF7E6
:1036200018FF12E0019828B1784201B22846FFF74E
:1036300010FF0AE0009820B129463846FFF709FF3D
:1036400003E039462846FFF704FF4545CEDB0AB0C4
:10365000BDE8F08F2DE9F04705460E46174698461F
:10366000DDF820A0BAF1000F24D12C460CE0314641
:103670002046FFF7EEFE06EB0800401E01B2204692
:10368000FFF7E7FE601C04B2E819A042EFDC344605
:103690000BE021462846FFF7DCFEE919491E08B277
:1036A0002146FFF7D6FE601C04B206EB0800A042DC
:1036B000EFDC14E02C460FE0B14607E04946204617
:1036C000FFF7C7FE09F101000FFA80F906EB0800C9
:1036D0004845F3DC601C04B2E819A042ECDCBDE80C
:1036E000F0872DE9FF4F87B014461D46DDE91467CA
:1036F000DDF81C80DDF82090DDF81C80CDF8188006
:10370000DDF82090CB46DDF81C80ADF80C80ADF8DC
:103710000E40ADF81060DDF82090ADF80490ADF8E3
:103720000650ADF80870169890B92B462246DDE990
:103730000701FFF7D4FE3B463246DDE90701FFF7FC
:10374000CEFE3B46324629462046FFF7C8FE39E00A
:10375000444500DAA046464500DAB0464D4500DA59
:10376000A9464F4500DAB9460698844200DD069422
:103770000698864200DD06965D4500DDAB465F4556
:1037800000DDBB46C2461AE0CDF8149010E0059863
:10379000534601AA03A900900320FFF792FA18B13B
:1037A00050460599FFF755FE0598401C00B205905C
:1037B00005985845EBDD0AF101000FFA80FA0698EA
:1037C0008245E1DD0BB0BDE8F08F2DE9F04F0746F3
:1037D0000E4691469A46C9F1010B00254C46321916
:1037E00011B27A1910B2FFF734FE321B11B27A1BF4
:1037F00010B2FFF72EFE721911B23A1910B2FFF78C
:1038000028FE721B11B23A1B10B2FFF722FEBAF16A
:10381000000F0FD060420FFA80F809E006EB0800B5
:1038200001B23846FFF715FE08F101000FFA80F8E3
:10383000A045F3DB77E0681C05B2BBF1000F07DAA7
:103840006800401C58440FFA80FB09E04800002043
:10385000601E04B2281B4000401C58440FFA80FB35
:10386000321911B27A1910B2FFF7F3FD721911B2C1
:103870003A1910B2FFF7EDFD321B11B27A1B10B2EC
:10388000FFF7E7FD721B11B23A1B10B2FFF7E1FD23
:10389000321B11B27A1910B2FFF7DBFD721B11B2A5
:1038A0003A1910B2FFF7D5FD321911B27A1B10B2D6
:1038B000FFF7CFFD721911B23A1B10B2FFF7C9FD25
:1038C000BAF1000F2FD060420FFA80F811E006EB3A
:1038D000080211B27A1910B2FFF7BBFD06EB08021D
:1038E00011B27A1B10B2FFF7B4FD08F101000FFA14
:1038F00080F8A045EBDB68420FFA80F811E006EB98
:10390000080211B23A1B10B2FFF7A3FD06EB080242
:1039100011B23A1910B2FFF79CFD08F101000FFA3D
:1039200080F8A845EBDBA54285DBBDE8F08F2DE9EB
:10393000FF4F97B007460E469B46DDF864A0D94678
:1039400000254C46C9F1000008F01DFB0022FE4B8B
:10395000CDE9080108F06AF8CDE90C010AFB0AF08C
:1039600008F011FBCDE90A01DDE90C2308F072FB38
:10397000CDE9100109FB09F008F005FBCDE90E01C6
:10398000DDE9102308F052F8CDE9120108F01CF827
:1039900015902498A8B160420FFA80F80FE006EB6A
:1039A000080001B23846FFF754FD06EB080001B2EB
:1039B0003846FFF74EFD08F101000FFA80F8A045E8
:1039C000EDDB321911B27A1910B2FFF742FD321B4A
:1039D00011B27A1B10B2FFF73CFD321911B27A1BFB
:1039E00010B2FFF736FD321B11B27A1910B2FFF791
:1039F00030FD5BE00021159809F02AF80DD809FB8D
:103A000009F16A00D21C01FB02F009F009F81390D9
:103A1000159908F0B5FE159014E009FB09F16A004C
:103A2000D21C51430AFB0AF26300C3F1020302FBFA
:103A3000031008F0F5FF1390159908F0A1FE1590FA
:103A4000601E04B2681C05B22498B8B160420FFA37
:103A500080F811E006EB080211B27A1910B2FFF7F4
:103A6000F8FC06EB080211B27A1B10B2FFF7F1FC6A
:103A700008F101000FFA80F8A045EBDB321911B212
:103A80007A1910B2FFF7E5FC321B11B27A1B10B2A3
:103A9000FFF7DFFC321911B27A1B10B2FFF7D9FC25
:103AA000321B11B27A1910B2FFF7D3FC204608F08E
:103AB0006AFA0022A44BCDE90A0108F04BFDCDE9DA
:103AC0000E010AFB0AF008F05EFACDE90C01DDE90F
:103AD0000E2308F0BFFACDE9120109FB09F16A1CB7
:103AE00001FB02F008F04FFACDE91001DDE91223E5
:103AF00008F074FAFFF47EAF0AFB0AF101FB09F14A
:103B000001FB09F008F03FFACDE910010AFB0AF1C8
:103B1000621E514301FB02F008F035FACDE90C01B9
:103B2000284608F030FA0022874BCDE9040107F05F
:103B30007DFFCDE90801284608F025FA0022824BD6
:103B4000CDE9000107F072FFCDE9040109FB09F09E
:103B500008F019FACDE90201DDE9042308F07AFA48
:103B6000CDE90601DDE9082308F074FACDE90A0180
:103B7000DDE90C2307F05AFFCDE90E01DDE9102342
:103B800008F0E8FCCDE9120107F01EFF14905CE09C
:103B90000021149808F05CFF15D809FB09F16A00B0
:103BA000921C51430AFB0AF26300C3F1030302FBB8
:103BB000031008F035FF1390149908F0E1FD1490FC
:103BC000681C05B20DE00AFB0AF16200C2F10302B3
:103BD00001FB02F008F024FF1390149908F0D0FDC7
:103BE0001490601E04B22498B8B160420FFA80F8B5
:103BF00011E006EB080211B27A1910B2FFF729FCA6
:103C000006EB080211B27A1B10B2FFF722FC08F192
:103C100001000FFA80F8A045EBDB321911B27A19D6
:103C200010B2FFF716FC321B11B27A1B10B2FFF76D
:103C300010FC321911B27A1B10B2FFF70AFC321BCA
:103C400011B27A1910B2FFF704FC002CA0DC1BB0F3
:103C5000BDE8F08F2DE9F05F07460E4691469B4682
:103C6000C9F1010A00254C465A46214628460A9BBE
:103C7000FFF76DF828B1321911B27A1910B2FFF7B7
:103C8000E8FB5A46604201B2684200B20A9BFFF765
:103C90005EF828B1321B11B27A1B10B2FFF7D9FBC4
:103CA0005A46294620460A9BFFF751F828B1721957
:103CB00011B23A1910B2FFF7CCFB5A46684201B272
:103CC000604200B20A9BFFF742F828B1721B11B2A2
:103CD0003A1B10B2FFF7BDFB0B98B0B160420FFA70
:103CE00080F810E05A46414600200A9BFFF72FF863
:103CF00028B106EB080001B23846FFF7AAFB08F12D
:103D000001000FFA80F8A045ECDBD6E0681C05B294
:103D1000BAF1000F05DA6800401C50440FFA80FA2F
:103D200007E0601E04B2281B4000401C50440FFAFC
:103D300080FA5A46214628460A9BFFF708F840B108
:103D4000321911B27A1901E00000E03F10B2FFF71A
:103D500080FB5A46294620460A9BFEF7F8FF28B109
:103D6000721911B23A1910B2FFF773FB5A4660424A
:103D700001B2684200B20A9BFEF7E9FF28B1321B8C
:103D800011B27A1B10B2FFF764FB5A46684201B2C7
:103D9000604200B20A9BFEF7DAFF28B1721B11B233
:103DA0003A1B10B2FFF755FB5A46604201B2284653
:103DB0000A9BFEF7CCFF28B1321B11B27A1910B260
:103DC000FFF747FB5A46684201B220460A9BFEF7BE
:103DD000BEFF28B1721B11B23A1910B2FFF739FBBE
:103DE0005A462146684200B20A9BFEF7B0FF28B14E
:103DF000321911B27A1B10B2FFF72BFB5A46294633
:103E0000604200B20A9BFEF7A2FF28B1721911B2FC
:103E10003A1B10B2FFF71DFB0B9800284DD06042F3
:103E20000FFA80F820E05A46414628460A9BFEF7E2
:103E30008EFF30B106EB080211B27A1910B2FFF70B
:103E400008FB5A464146684200B20A9BFEF77FFFD4
:103E500030B106EB080211B27A1B10B2FFF7F9FA83
:103E600008F101000FFA80F8A045DCDB68420FFA88
:103E700080F820E05A464146604200B20A9BFEF7B5
:103E800066FF30B106EB080211B23A1B10B2FFF721
:103E9000E0FA5A46414620460A9BFEF758FF30B1E9
:103EA00006EB080211B23A1910B2FFF7D2FA08F184
:103EB00001000FFA80F8A845DCDBA542FFF626AF2B
:103EC000BDE8F09F10B5044684F0010220210E48A1
:103ED000FCF705FF0D48047010BD08B5012108204E
:103EE000FDF708F910208DF8030003208DF802007B
:103EF0002020ADF8000069460348FCF73FFE002093
:103F0000FFF7E0FF08BD0000000C01402D0000207D
:103F100008B501210820FDF7EDF810208DF8030009
:103F200003208DF802004FF48060ADF80000694670
:103F30005548FCF723FE28208DF803004FF400605D
:103F4000ADF8000069465048FCF718FE4FF4806158
:103F50004D48FCF7C2FE08BD70B500244FF48061E7
:103F60004948FCF7B8FE1420FEF7E0FA4FF48061F0
:103F70004548FCF7B2FE002509E06D1C0120FEF764
:103F8000D5FA44F62060854201DD002070BD4FF473
:103F900000613D48FCF785FE0028EED008E00A20CD
:103FA000FEF7C4FA641C41F28830844200DD06E06A
:103FB0004FF400613448FCF774FE0128EFD000BFD5
:103FC000204608F02DFD0646304908F075FDDDE776
:103FD0002DE9F04786B0002408E0FFF7BDFF01A9F6
:103FE00041F824000A20FEF7E0FA641C052CF4DBFB
:103FF00000241DE0002516E001AB6A1C53F82210D6
:1040000001AA52F8250008F023FE0BD201A850F8AF
:10401000259001A9681C51F8200041F82500681C72
:1040200041F820906D1CC4F10400A842E4DC641C3B
:10403000042CDFDB4FF0000A0026012413E001A965
:1040400051F8240008F070FB0746114A114B08F0A4
:10405000FFF807D201A850F82410504608F090FB52
:104060008246761C641C042CE9DB002E0ADD3046F7
:1040700008F0D6FC07463946504608F0EFFB06B07C
:10408000BDE8F0870398FAE7000C01407B142E3E50
:104090009A9999999999B93F00B587B001214FF440
:1040A0000170FDF727F84FF40040FCF787FF002070
:1040B0008DF81B001020ADF8180006A92148FCF768
:1040C0005DFD002001908DF808008DF809004FF487
:1040D000602003900020049001208DF8140001A9B5
:1040E0001948FCF7EAFA01211748FCF712FB1648B9
:1040F000FCF731FB00BF1448FCF732FB0028FAD173
:104100001148FCF737FB00BF0F48FCF738FB0028CD
:10411000FAD107B000BD10B50523012204210A48D9
:10412000FCF763FB01210848FCF733FB00BF0221C9
:104130000548FCF79FFC0028F9D00348FCF7BCFBBE
:1041400010BD0000000801400024014010B50446E5
:10415000012C0CD101023948FCF7BDFD6102374842
:10416000FCF7BBFD64213648FDF7F0FE0DE04FF48F
:1041700080713248FCF7B1FD4FF400712F48FCF715
:10418000ACFD00212E48FDF7E1FE2E48047010BD65
:1041900000B589B001210820FCF7ACFF0121042003
:1041A000FCF7B5FF10208DF8230003208DF82200C6
:1041B0000002ADF8200008A92048FCF7DFFC4FF40E
:1041C00080711E48FCF789FD4FF400711B48FCF715
:1041D00084FD18208DF823004020ADF8200008A9A8
:1041E0001648FCF7CBFC6320ADF8180040F2CF2056
:1041F000ADF814000020ADF81A00ADF8160005A9BE
:104200000F48FDF7AFF801A8FDF7E1FB6020ADF81E
:1042100004000120ADF806000020ADF80A00ADF85A
:104220000C0001A90648FDF7DAF801210448FDF762
:10423000F5FB0020FFF78AFF09B000BD000C01402C
:10424000000800402E00002010B54FF4A060FCF7DD
:104250009FF9FEF753F94FF4E130FEF7C9F94FF437
:10426000E130FEF718FAFEF7DDFAFEF7C1FAFEF7C5
:10427000D1FCFFF78DFFFFF74BFEFFF70DFFFFF7B8
:104280002CFEFEF7B5FC082382A200210846FEF7AB
:1042900020FF082384A210210020FEF71AFF082324
:1042A00086A220210020FEF714FFFEF78FFCFEF708
:1042B000C4FB38B185A18948FEF757FA4FF47A70EC
:1042C000FEF773F986A18548FEF74FFA10BD08B5D1
:1042D00000250024FFF7B8FF02F087FA85A17F4888
:1042E000FEF743FA03E04FF4FA70FEF73DF988A1B8
:1042F00089A002F018FA0028F5D193A17748FEF7BB
:1043000034FA03E04FF4FA70FEF72EF900F0ADFA3C
:104310000028F7D100F09CFDBAE0681C80B2054689
:104320001E2876DB90499148FEF75BFBFFF750FEB5
:10433000064608F055FB8E490870FFF7ECFE8D49E4
:1043400008708A4800781E2803DD0120FFF7FEFE72
:1043500002E00020FFF7FAFE86480078B0F57A7F89
:1043600003DD0120FEF738FA02E00020FEF734FA00
:104370007F48007800280DDD7D48007807F01AFEA0
:10438000064600227C4B07F029FE03D20120FFF7EE
:1043900099FD02E00020FFF795FD08200223009020
:1043A0007248027800212020FEF716FF0820022321
:1043B00000906D48027800216020FEF70DFF082074
:1043C000032300906A48027810212020FEF704FFA2
:1043D0000820032300906748027810216820FEF728
:1043E000FBFE0820009063480078B0F57A7F01DD7D
:1043F000012000E000200246012320211820FEF7C2
:10440000EBFE08200090594800781E2802DD0120AC
:1044100001E027E000200246012320214820FEF78A
:10442000DBFE5348007800280BDD5148007807F088
:10443000C1FD06460022504B07F0D0FD01D20120FD
:1044400000E0002080460820012342462021009001
:104450007020FEF7C1FEFEF7B9FB00F094FC0025CA
:1044600002F042F9002002F09EF904466CB12046A9
:1044700000F019FD08200090404802780123202117
:104480001820FEF7A9FEFEF7A1FB0A20FEF78DF823
:1044900043E70000546D703A2020A1E62048756D76
:1044A0003A202025000000004469733A2020206350
:1044B0006D204C743A202020000000004C653A200A
:1044C000204D6F743A2020427A3A200044485431FB
:1044D00031204572726F72200D0A000000380140D1
:1044E00020486172647761726520696E6974204F3B
:1044F0004B0D0A00436F6E6E656374204D5154542A
:1045000073205365727665722E2E2E0D0A00000000
:10451000434F4E4E4543540041542B43495053544E
:104520004152543D22544350222C226D71747473B5
:104530002E6865636C6F7564732E636F6D222C310A
:104540003838330D0A000000436F6E6E65637420C7
:104550004D515454732053657276657220537563C0
:10456000636573730D0A0000300000202F000020E7
:10457000310000203200002000002E402C000020DE
:10458000F0B58BB0054600260024284604F01AFB3F
:10459000C7B20DB11C2F02DA01200BB0F0BD06E04E
:1045A000A85D01A988550020A855701CC6B2BE425E
:1045B000F6DB002001A988550026002455E001A85B
:1045C000805D2B2810D008DC202814D023282ED082
:1045D000252825D026283FD130E02F2812D03D288D
:1045E00033D03F2838D114E02819FAA104F054FB45
:1045F000E01CC4B236E02819F7A104F04DFBE01C22
:10460000C4B22FE02819F5A104F046FBE01CC4B2A7
:1046100028E02819F2A104F03FFBE01CC4B221E01D
:104620002819F0A104F038FBE01CC4B21AE02819E4
:10463000EDA104F031FBE01CC4B213E02819EBA19A
:1046400004F02AFBE01CC4B20CE02819E8A104F035
:1046500023FBE01CC4B205E001A8805D2855601C66
:10466000C4B200BF00BF701CC6B2BE42A7DB0020B0
:10467000285500BF91E72DE9F04FC9B005460C461B
:1046800016461F460DF5A47898E8000F00204890C4
:1046900055B14CB1D748864206D32FB1B9F1000FBE
:1046A00002D0BAF1780F03DA012049B0BDE8F08FEB
:1046B000402118A804F095FB384604F083FA0590D1
:1046C0003B4648AA4021009018A801F051F8482123
:1046D00006A804F086FBBBF1000F09D0C6A0334644
:1046E000C7A248218DE8310006A803F02FFF09E09A
:1046F000C1A03346C8A248218DE81101039506A840
:1047000003F024FF402128A804F06BFB06A804F066
:1047100059FA059018A804F055FA049028A80090BA
:1047200006AA18A8DDE9041300F0DCFE002048907A
:10473000402138A804F055FB28A804F043FA05905E
:1047400028AB48AA4021009038A800F071FF38A893
:10475000FFF716FFBBF1000F0CD038A8A6A12B461F
:10476000B5A2CDE90046CDE902105146484603F016
:10477000EDFE0CE038A8A0A12B46BD4ACDE901868C
:104780000094CDE903105146484603F0DFFE0020B7
:104790008BE72DE9F041ACB001270D250026002460
:1047A00005F1F00003F02CFE06461EB938462CB089
:1047B000BDE8F08103E04FF4FA70FDF7D5FEADA13E
:1047C000AEA001F0B0FF0028F5D10120902108AA89
:1047D0000023CDE90032CDE90210B2A3BD4ABEA14B
:1047E000C0A0FFF748FFC2A10D20CDE9000105F1EF
:1047F000F00108ABBF4A304603F0A8FE304604F093
:10480000E1F91FFA80F84146304601F0B2FFFA2084
:1048100001F0C9FF044624B1B7A1204604F09CF979
:104820000446CCB100200390B64803A904ABB64AB5
:10483000CDE90010B549204604F03EF804280AD11D
:10484000B048039904ABB04ACDE90010B0A1B84814
:10485000FDF78BFF002700BF304603F000FEB5A137
:10486000B5A001F060FF3846A1E730B5B3B0002035
:104870002F903090319032900125A02107AA9CA35F
:10488000CDE90032CDE9021086A3924A92A195A00B
:10489000FFF7F1FE07A890A395A2ABA10090A44852
:1048A000FDF763FF2FA8002102910391CDE90410C9
:1048B000084601210B028EA2CDE9001007A986A0AF
:1048C00001F0B7F8002842D1309A91B22F9801F048
:1048D00050FFFA2001F067FF0446002C33D0204639
:1048E00001F072F802282ED1204601F007FA0628BE
:1048F00023D2DFE800F003090E13181D9EA18C4897
:10490000FDF733FF00251DE0A0A18948FDF72DFF2D
:1049100018E0A5A18648FDF728FF13E0ABA1844865
:10492000FDF723FF0EE0B1A18148FDF71EFF09E06E
:10493000B7A17F48FDF719FF04E0C0A17C48FDF74F
:1049400014FF00BF00BF2FA800F0F6FF03E0C2A1D4
:104950007748FDF70AFF284633B030BD10B58CB05C
:1049600004463021684604F03CFAC4A1204604F015
:1049700005F93021684604F034FAC6480278C6A129
:10498000684603F0CDFD6946204604F085F93021E4
:10499000684604F026FAC6480278C6A1684603F0C5
:1049A000BFFD6946204604F077F93021684604F0DF
:1049B00018FAC6480278C6A1684603F0B1FD6946F8
:1049C000204604F069F93021684604F00AFAC74825
:1049D00002788DE125324200253230002532460032
:1049E0002533460025323500253233002532360086
:1049F000253344009554415D736861310000000027
:104A000025640A25730A70726F64756374732F25A9
:104A1000730A25730000000025640A25730A70726A
:104A20006F64756374732F25732F6465766963658E
:104A3000732F25730A25730076657273696F6E3D57
:104A40002573267265733D70726F64756374732588
:104A500025324625732665743D2564266D65746888
:104A60006F643D2573267369676E3D2573000000F2
:104A700088E90008434F4E4E4543540041542B43B0
:104A8000495053544152543D22544350222C223118
:104A900038332E3233302E34302E3333222C38300C
:104AA0000D0A0000545870555A48684954324E71E6
:104AB0004F476449624655334E4730335747564E49
:104AC0005655646A535646575330394D55324D3D0D
:104AD0000000000000CF9D74384F437644794C614C
:104AE00062380000323031382D31302D3331000042
:104AF00077310000D0E900086465766963655F6915
:104B00006400000058040020480400203CE900082C
:104B1000637265617465206465766963653A202512
:104B2000732C2025732C2025642C2025730D0A005E
:104B3000003801404F4B000041542B434950434C37
:104B40004F53450D0A0000004F6E654E45545F44BB
:104B500065764C696E6B0D0A4E414D453A202573C2
:104B60002C0950524F49443A2025732C094B455982
:104B70003A25730D0A000000546970733A09C1ACFC
:104B8000BDD3B3C9B9A60D0A000000005741524E6B
:104B90003A09C1ACBDD3CAA7B0DCA3BAD0ADD2E943
:104BA000B4EDCEF30D0A00005741524E3A09C1ACA4
:104BB000BDD3CAA7B0DCA3BAB7C7B7A8B5C4636CE6
:104BC00069656E7469640D0A000000005741524E19
:104BD0003A09C1ACBDD3CAA7B0DCA3BAB7FECEF1C7
:104BE000C6F7CAA7B0DC0D0A000000005741524EBC
:104BF0003A09C1ACBDD3CAA7B0DCA3BAD3C3BBA723
:104C0000C3FBBBF2C3DCC2EBB4EDCEF30D0A000074
:104C10005741524E3A09C1ACBDD3CAA7B0DCA3BAC2
:104C2000B7C7B7A8C1B4BDD328B1C8C8E7746F6B04
:104C3000656EB7C7B7A8290D0A0000004552523A61
:104C400009C1ACBDD3CAA7B0DCA3BACEB4D6AAB44E
:104C5000EDCEF30D0A0000005741524E3A094D5176
:104C600054545F5061636B6574436F6E6E6563741B
:104C7000204661696C65640D0A0000007B2269644E
:104C8000223A22313233222C22706172616D7322FA
:104C90003A7B00002F0000202274656D70223A7B61
:104CA0002276616C7565223A25647D2C0000000037
:104CB000300000202268756D69223A7B2276616C93
:104CC0007565223A25647D2C00000000310000202B
:104CD0002264697374616E6365223A7B2276616C2B
:104CE0007565223A25647D2C00000000320000200A
:104CF000BEA1684603F014FC6946204603F0CCFFD1
:104D00003021684604F06DF8BE48007808B1BEA0B6
:104D100000E0BFA00246C0A1684603F001FC69465E
:104D2000204603F0B9FF3021684604F05AF8C04825
:104D3000007808B1B4A000E0B5A00246BDA1684665
:104D400003F0EEFB6946204603F0A6FF30216846DB
:104D500004F047F8BF48007808B1ABA000E0ACA071
:104D60000246BDA1684603F0DBFB6946204603F01E
:104D700093FFBEA1204603F08FFF204603F022FFE1
:104D8000C0B20CB010BD30B5C5B00020419042900B
:104D900043904490002400254FF4807101A804F052
:104DA00020F801A8FFF7DAFD0446002C23D041A823
:104DB00000232246AFF2C8210090AFF2E42001F0B8
:104DC0008EF8A0B908E001A8415D429A501C4290BB
:104DD00041988154681C05B2A542F4DB429A91B215
:104DE000419801F0C6FC41A800F0A6FD03E0A0A197
:104DF000A748FDF7BAFC45B030BD70B588B0054690
:104E00000C460020049005900690079023462A4601
:104E1000A0A19F48FDF7A9FC204603F0D3FE06465B
:104E200004A80121002200923346CDE9012103901C
:104E3000224629460A2000F070FF38B9059A91B23F
:104E4000049801F096FC04A800F076FD08B070BD4F
:104E500000B595B00020119012901390149003A803
:104E60000290AFF27430AFF2903392A238210090EA
:104E700003A803F06BFB03AA96A18548FDF775FC18
:104E800011A8012302AA00210090142001F031F999
:104E900038B9129A91B2119801F06BFC11A800F088
:104EA0004BFD15B000BD2DE9F04F8BB081460020C1
:104EB0000A900990089007900690002600278246E5
:104EC0000590484600F080FD0646032E04D0042ECF
:104ED0005CD0092E72D162E0844806A907AA0AAB09
:104EE000CDE90021029008AA09A9484601F039FA43
:104EF0000746002F49D18346BDF81C000A99CDE929
:104F00000010BDF820307AA16148099AFDF72DFC08
:104F10000A9802F099FB049084A1049802F09AFF89
:104F2000039084A1039802F095FF8046B8F1000F2A
:104F300009D0D8F80C00012802D1FDF74DFC02E0A1
:104F40000020FDF749FC7CA1039802F083FF044692
:104F500044B1E068012802D1FFF7F8F802E0002030
:104F6000FFF7F4F878A1039802F074FF054645B105
:104F7000E868012802D1FEF7A5FF02E00020FEF755
:104F8000A1FF049801F05EFD00BF00BF484601F09C
:104F9000E8FA18B96EA13E48FDF7E7FB11E0484674
:104FA00001F026F920B972A13948FDF7DEFB03E0D4
:104FB00076A13748FDF7D9FB03E0FFE74FF0FF3755
:104FC00000BF00BF01F090FB781C10B90BB0BDE82A
:104FD000F08F0F2E01D0032E05D1099803F03FFA70
:104FE0000A9803F03CFA00BFF0E70000226C696702
:104FF0006874223A7B2276616C7565223A25647D5D
:105000002C0000002D000020747275650000000067
:1050100066616C73650000002262757A7A6572229F
:105020003A7B2276616C7565223A25737D2C0000EF
:105030002E000020226D6F746F725F73746174753F
:1050400073223A7B2276616C7565223A25737D2C3A
:10505000000000002C000020226C6564223A7B22B4
:1050600076616C7565223A25737D00007D7D0000B8
:105070005741524E3A094544505F4E657742756636
:10508000666572204661696C65640D0A0000000067
:10509000003801405075626C69736820546F706904
:1050A000633A2025732C204D73673A2025730D0A2F
:1050B00000000000247379732F25732F25732F743C
:1050C00068696E672F70726F70657274792F73657F
:1050D0007400000053756273637269626520546FD7
:1050E0007069633A2025730D0A0000003400002027
:1050F000746F7069633A2025732C20746F70696334
:105100005F6C656E3A2025642C207061796C6F614C
:10511000643A2025732C207061796C6F61645F6C38
:10512000656E3A2025640D0A00000000706172610E
:105130006D7300006C6564006D6F746F725F7374E3
:10514000617475730000000062757A7A6572000000
:10515000546970733A094D515454205075626C690A
:1051600073682053656E64204F4B0D0A00000000E9
:10517000546970733A094D515454205375627363E6
:1051800072696265204F4B0D0A000000546970730C
:105190003A094D51545420537562736372696265C4
:1051A000204572720D0A0000F0B50446142C06DA90
:1051B00001EA020523EA010685EA060019E0282C27
:1051C00004DA81EA020787EA030012E03C2C0ADADB
:1051D00001EA020501EA030787EA050602EA030776
:1051E00087EA060005E0502C03DA81EA020787EA25
:1051F0000300F0BD0146142901DAF7480AE0282926
:1052000001DAF64806E03C2901DAF54802E05029C7
:1052100000DAF4487047F0B5024601209040441E81
:10522000E54301EA050020FA02F601EA0400C2F1B2
:10523000200C00FA0CF746EA07031846F0BDF0B55B
:105240000246C2F1200C012000FA0CF0441EE54396
:1052500001EA040000FA02F601EA0500C2F1200C9E
:1052600020FA0CF746EA07031846F0BD2DE9F04F87
:10527000DDB007468A4615460AF1080909F1010919
:105280004FEACA005B9048464FEAE97109EB916129
:105290008E1148464FEAE97109EB91618911A9EB3A
:1052A00081115C915C98002800DD761C5C98C0F14F
:1052B00040008144D04604E0002007F8080008F1CF
:1052C0000108B8EB861FF7DB802007F80A000121F0
:1052D000C1EB86115B9878545B98C0F307200221DC
:1052E000C1EB861178545B98C0F307400321C1EBF2
:1052F000861178545B98000E0421C1EB8611785416
:10530000B9485690B9485790B748C0435890B748E5
:10531000C0435990B6485A904FF00008A5E00024C9
:1053200052E0102C32D24FEA881000EB8400385C37
:10533000000601A941F824004FEA881000EB840020
:10534000401C385C51F824104FF4803202FB0010EE
:1053500001A941F824004FEA881000EB8400801C6A
:10536000385C51F82410121202FB001001A941F818
:1053700024004FEA881000EB8400C01C385C51F810
:105380002410084401A941F824001CE0502C1AD232
:10539000E01E01AA52F82000A4F1080201AB53F864
:1053A00022205040A4F10E0253F822205040A4F1D4
:1053B000100253F8222080EA02010120FFF73FFF8C
:1053C00001A941F82400641C502CAAD3569855908A
:1053D0005798549058985390599852905A98519081
:1053E00000242AE005205599FFF729FF834620462F
:1053F000529B539A5499FFF7D7FE58440090519905
:105400000098084400902046FFF7F4FE00990844F5
:10541000009001A850F82410009808440090529879
:105420005190539852901E205499FFF708FF5390C3
:105430005598549000985590641C502CD2D356998E
:10544000559808445690579954980844579058993D
:1054500053980844589059995298084459905A9929
:10546000519808445A9008F10108B045FFF657AF2B
:105470005698E8705698000AA8705698000C687004
:105480005698000E28705798E8715798000AA8712E
:105490005798000C68715798000E28715898E87258
:1054A0005898000AA8725898000C68725898000E14
:1054B00028725998E8735998000AA8735998000CF3
:1054C00068735998000E28735A98E8745A98000A1D
:1054D000A8745A98000C68745A98000E28745DB02D
:1054E000BDE8F08F2DE9F04FADF5B36D07460E46E0
:1054F00092469846DDF8BC9540254FF0360B5C206F
:10550000CDF89405002404E000200DF25451085514
:10551000641C402CF8DBAE421DD0AE420FDD4A4683
:1055200031463846FFF7A2FE002405E019F80400D2
:105530000DF254510855641C142CF7DB14E0AE42F4
:1055400012DA002404E0385D0DF254510855641C51
:10555000B442F8DB08E0002404E0385D0DF2545159
:105560000855641CAC42F8DB002408E00DF25450EE
:10557000005D80EA0B000DF214510855641C402CAC
:10558000F4DB002405E00DF21450005D15A9085568
:10559000641C402CF7DB002406E01AF8041015AA5E
:1055A00004F140001154641C4445F6DB08EB05018E
:1055B0004A4615A8FFF75AFE002409E00DF25450A0
:1055C000005DDDF8941548400DF2D4410855641C87
:1055D000402CF3DB002413E09979825AA1EBD96EB9
:1055E000DCBC1B8FD6C162CA0123456789ABCDEFF6
:1055F000F0E1D2C30DF2D440005D0DF80400641C4C
:10560000402CF7DB002406E019F8041004F14000F8
:105610000DF80010641C142CF6DB4A4605F1140149
:105620006846FFF723FE0DF5B36DBDE8F08F00006F
:105630002DE9F04F07468946099C00250026AC4617
:10564000A846AA4600211CB900201060BDE8F08FD2
:105650000320B4FBF0F04FF0030BB4FBFBFE0BFB9D
:105660001E4BBBF1000F02D04FF0010B01E04FF0D9
:10567000000B00EB0B06B6F1804F05D34FF0FF3067
:1056800010606FF02900E1E7B600701C814500D37F
:1056900027B9701C10606FF02900D7E70320B4FB16
:1056A000F0F000EB40060025394629E013F801CB65
:1056B00013F8018B13F801AB87484FEA9C0B10F8E5
:1056C0000B0001F8010B4FEA0C1000EB281000F062
:1056D0003F00DFF804B21BF8000001F8010B4FEAAD
:1056E000880000EBAA1000F03F001BF8000001F852
:1056F000010B0AF03F001BF8000001F8010BED1C44
:10570000B542D3D3A5422DD213F801CB681CA042D9
:1057100002D213F8010B00E0002080466E48CCF363
:10572000850B10F80B0001F8010B4FEA0C1000EB91
:10573000281000F03F00DFF8A0B11BF8000001F8CE
:10574000010B681CA04207D23F2000EA88001BF82A
:10575000000001F8010B02E03D2001F8010B3D20A3
:1057600001F8010BC81B10600020087000BF6DE736
:105770002DE9F047074689469046DDF820C0002114
:10578000002200240026002500200446024601468F
:1057900045E0002601E0491C761C614502D2585CB8
:1057A0002028F8D0614500D13BE0ACEB0100022895
:1057B00007D3585C0D2804D1481C185C0A2800D176
:1057C0002CE0585C0A2800D128E01EB16FF02B00B5
:1057D000BDE8F087585C3D2806D1601C04460228CD
:1057E00002D96FF02B00F3E7585C7F2806DC585C89
:1057F000DFF8E8A01AF800007F2802D16FF02B0034
:10580000E6E7585CDFF8D4A01AF80000402803DA75
:1058100014B16FF02B00DBE7521C00BF491C61453F
:10582000B7D300BF1AB90020C8F80000D0E7D008ED
:1058300000EB40004FEA400A02F0070000EB400096
:105840004000C01D0AEBD002121B0FB1914504D2DB
:10585000C8F800206FF02900BAE7032400200646AC
:1058600002463D4631E018780D2805D018780A2800
:1058700002D01878202800D125E01878DFF85CA045
:105880001AF80000402801D1012000E00020241A6D
:105890001878DFF848A01AF8000066F39F10064653
:1058A000501C024604280DD1002214B1300C05F81A
:1058B000010B012C02D9300A05F8010B022C01D989
:1058C00005F8016B00BF491E5B1C0029CBD1E81B0A
:1058D000C8F8000000207BE749E6000889E60008D8
:1058E00070B504460E460025206898B90120207343
:1058F000304602F085FD20602068E0B10020606045
:10590000A66003E00020216848556D1CA068A842ED
:10591000F8D810E00220207303E0002021684855E9
:105920006D1CA068A842F8D800206060A068B04252
:1059300001D20020206070BD10B50446207B0128F4
:1059400002D1206802F08BFD002020606060A06022
:10595000207310BD0246002301230DE002F07F00FA
:105960000870D2092AB1087840F080000870491CFC
:1059700001E0184670475B1C042BEFDD4FF0FF3051
:10598000F8E7F0B504460D462646012300201060D6
:10599000002114E0775C07F07F07106807FB030025
:1059A0001060705C00F0800008B9481CF0BDDB019D
:1059B000B3F5001F02D36FF00100F7E7491CA942BD
:1059C000E8DB4FF0FF30F1E7F8B50446FF27207819
:1059D0000511012D01DB0E2D01DD3846F8BD032D2B
:1059E00024D1002000906A460421601CFFF7C9FF03
:1059F0002044461C0098022803D3207800F00100C0
:105A000008B1FF20EAE77078317840EA0120801C75
:105A10000099884201D9FF20E0E7F8A1B01C03F00B
:105A20009BF808B10F2700E0032700E02F46384617
:105A3000D4E72DE9FF4F83B082468B469146159CF3
:105A40000025002002900F270190484603F0BAF885
:105A50000FFA80F8B9F1000F03D1012007B0BDE8BB
:105A6000F08F08F10200384487B2109808B145F071
:105A70000205129878B145F00405129803F0A2F8D7
:105A8000C0B20290139803F09DF801460298001DE1
:105A90000844384487B2119820B1012804D0022864
:105AA00008D104E000BF07E045F00C0504E045F034
:105AB000140501E00220D1E700BF149808B145F0B9
:105AC0002405BAF1000F02D0BBF1000F01D1032071
:105AD000C4E745F0C005504603F074F80646584642
